:020000040800F2
:1000000000000120911D00081110000813100008C5
:100010001510000817100008191000080000000053
:100020000000000000000000000000001B1000089D
:100030001D100008000000001F100008211000081B
:10004000D91D0008D91D0008D91D0008D91D0008B8
:10005000D91D0008D91D0008D91D0008D91D0008A8
:10006000D91D0008D91D0008D91D0008D91D000898
:10007000D91D0008D91D0008D91D0008D91D000888
:10008000D91D0008D91D0008D91D0008D91D000878
:10009000D91D0008D91D0008D91D0008D91D000868
:1000A000D91D0008D91D0008D91D0008D91D000858
:1000B000D91D0008D91D0008D91D0008D91D000848
:1000C000D91D0008D91D0008D91D0008D91D000838
:1000D000D91D0008D91D0008D91D0008D91D000828
:1000E000D91D0008D91D0008D91D0008D91D000818
:1000F000D91D0008D91D0008D91D0008D91D000808
:10010000D91D0008D91D0008D91D0008D91D0008F7
:10011000D91D0008D91D0008D91D0008D91D0008E7
:10012000D91D0008D91D0008D91D0008D91D0008D7
:1001300000000000000000000000000000000000BF
:1001400000000000000000000000000000000000AF
:10015000000000000000000000000000000000009F
:10016000000000000000000000000000000000008F
:10017000000000000000000000000000000000007F
:10018000000000000000000000000000000000006F
:10019000000000000000000000000000000000005F
:1001A000000000000000000000000000000000004F
:1001B000000000000000000000000000000000003F
:1001C000000000000000000000000000000000002F
:1001D000000000000000000000000000000000001F
:0401E0005FF8E0F1F3
:1001E4000348044B834202D0034B03B118477047C2
:1001F4007000002070000020000000000548064B3D
:100204001B1AD90F01EBA301491002D0034B03B110
:1002140018477047700000207000002000000000A4
:1002240010B5064C237843B9FFF7DAFF044B13B13A
:100234000448AFF300800123237010BD7000002038
:1002440000000000DC1D000808B5044B1BB1044984
:100254000448AFF30080BDE80840CFE70000000089
:1002640074000020DC1D0008014B1868704700BFB3
:100274000000002070B50D4E0D4D761BB61006D053
:10028400002455F8043B01349847A642F9D1094E9D
:10029400094D01F0A1FD761BB61006D0002455F8D7
:1002A400043B01349847A642F9D170BD901E000862
:1002B400901E0008941E0008901E0008830730B5A5
:1002C40048D0541E002A3FD00346CAB201E0013C84
:1002D4003AD303F8012B9D07F9D1032C2DD9CDB2C4
:1002E40045EA05250F2C45EA054536D9A4F1100247
:1002F40022F00F0C03F1200EE6444FEA121C03F126
:10030400100242E9045542E9025510327245F8D10F
:100314000CF1010214F00C0F03EB021204F00F0CA9
:1003240013D0ACF1040323F003030433134442F861
:10033400045B9342FBD10CF003042CB1CAB21C44FD
:1003440003F8012B9C42FBD130BD64461346002CBC
:10035400F4D1F9E703461446BFE71A46A446E0E79A
:1003640070B506460D46002830D0836963B38468AF
:100374002C4B9C4234D02C4B9C423CD02B4B9C426B
:1003840008BFF468A3891B072ED5236963B32978B2
:1003940039B932E023685A1C2260197015F8011F1C
:1003A40059B3A368013B002BA360F3DAA26993421B
:1003B40001DB0A29EED12246304600F041F8013033
:1003C400ECD14FF0FF3070BD00F004FBB369B468AA
:1003D400002BCDD1304600F0FDFA124B9C42CAD11D
:1003E4007468A3891B07D0D42146304600F08AF8EC
:1003F4000028CCD0E5E7B468C4E7A368013B002B30
:10040400A36008DA22460A21304600F019F80130C8
:10041400D7D00A2070BD0A2223681046591C2160D7
:100424001A7070BD381E0008181E0008F81D000858
:10043400024B01461868FFF793BF00BF000000207D
:10044400F8B506460D46144608B1836943B3254BF7
:100454009C422AD0244B9C4229D0244B9C4208BF66
:10046400F468A269A389A2601A0722D5236903B399
:1004740022686169D31AEDB299422F4629DD01330E
:10048400A1680139A160511C2160157062699A420A
:1004940016D0A389DB0701D50A2D11D03846F8BD43
:1004A40000F098FA0F4B9C42D4D17468D9E7B46831
:1004B400D7E72146304600F025F838B92369D7E755
:1004C4002146304600F024F90028E7D04FF0FF37EA
:1004D400E4E72146304600F01BF90028F6D1012359
:1004E4002268CDE7381E0008181E0008F81D000811
:1004F40003460A46024908681946FFF7A1BF00BF30
:10050400000000203C4B70B51D6806460C460DB13A
:10051400AB69E3B1394B9C421FD0394B9C424DD05F
:10052400384B9C4208BFEC68B4F90C3018079AB2F7
:1005340019D5216911B312F001002FD0002560698B
:10054400A5604042A06100292ED0002070BD28463D
:1005540000F040FA294B9C42DFD16C68B4F90C30AE
:1005640018079AB2E5D4D1063ED5520728D421699A
:1005740043F00803A3819AB20029DCD102F420706D
:10058400B0F5007FD7D02146304600F087FAB4F9A1
:100594000C3021699AB212F00100CFD1950758BFEF
:1005A4006069A0600029D0D1120658BF0846CDD595
:1005B40043F040034FF0FF30A38170BDAC68B3E754
:1005C400616B51B104F14402914204D0304600F011
:1005D400F3FAB4F90C30002262630022216923F09B
:1005E4002403C4E90012C3E7092243F04003326044
:1005F4004FF0FF30A38170BD00000020381E0008BA
:10060400181E0008F81D0008F8B58B890C46190758
:1006140007463BD46268002A55DDE66A002E50D0B6
:1006240000223D683A6013F4805250D101233846C9
:10063400216AB047421C5CD0A389E66A5B0705D5F2
:100644006368C01A636B0BB1236CC01A0246216A3B
:1006540000233846B047411C3BD13B68002B38D0BF
:100664001D2B01D0162B4BD100232269C4E9002392
:10067400616B3D6029B304F14403994202D03846CA
:1006840000F09AFA002318466363F8BD2669C6B1E0
:100694009A0718BF0023256808BF63692660AD1B4D
:1006A400A3600CE02B463246D4F828C03846216AB1
:1006B400E047B0F1000CA5EB0C05664412DD002DFB
:1006C400F0DC0020F8BD226C002AA6DCF9E7606D9E
:1006D400B4E70022236962602360A389DB04C7D5E1
:1006E4006065C5E7A3894FF0FF3043F04003A38161
:1006F400F8BD3B68002B9FD01D2B06D0162B04D0D1
:10070400A38943F04003A381F8BD00203D60F8BDF8
:1007140038B50B69BBB10C46054608B18369B3B162
:100724000D4B9C4211D00D4B9C4213D00C4B9C4260
:1007340008BFEC68B4F90C302BB121462846BDE85B
:100744003840FFF761BF002038BD6C68F2E700F065
:1007540041F9E5E7AC68EDE7381E0008181E00080B
:10076400F81D000838B540B303690446E3B1174BDC
:100774001D680DB1AB69CBB1154B9C420FD0154B25
:100784009C4221D0144B9C4208BFEC68B4F90C3055
:1007940053B121462846BDE83840FFF735BF6C68A1
:1007A400B4F90C30002BF4D1002038BD284600F0F9
:1007B40011F9074B9C42E2D1F1E7084B084918684C
:1007C400BDE8384000F046B9AC68DFE7000000201F
:1007D400381E0008181E0008F81D0008F41D000843
:1007E4001507000800207047014900F033B900BF25
:1007F4001507000800207047682270B54D1E02FBE3
:1008040005F50E4605F1740100F03CFA044640B1CA
:1008140000210C30C4E9016005F168022160FFF792
:100824004DFD204670BD00BF274B2DE9F0411E68E9
:100834000746B36953B34FF004084836D6E9013488
:10084400013B04D51EE05A1C04F168041AD0B4F923
:100854000C50013B002DF6D11C4B08222946C4E95B
:100864000055C4E90253C4E904556566A56104F161
:100874005C00FFF723FDC4E90D55C4E91255204679
:10088400BDE8F08135682DB12E46D7E7304600F03B
:100894001FF8D0E74FF4D671384600F0F3F9044658
:1008A40068B1056029460546C0F804800C304FF451
:1008B400D072A060FFF702FD34602E46BEE70C2321
:1008C40030603B60DBE700BFF41D00080100FFFF60
:1008D4000023334A2DE9F0471268C0E912339042ED
:1008E400036508BF01232F4908BF83618162054660
:1008F400FFF79AFF034628466B60FFF795FFA86051
:1009040028460024FFF790FF04236E68DFF898A0C0
:10091400DFF89890DFF89880264FE8600822F360AB
:100924002146C6E90044C6E904447466B460B4616F
:1009340006F15C00FFF7C2FC1F4BC6E9086AC6E972
:100944000A983763AE680822F3602146C6E900447A
:10095400C6E904447466B460B46106F15C00FFF750
:10096400ADFC164BC6E9086AC6E90A983763EE6817
:100974002146F3600822C6E90044C6E904447466CB
:10098400B460B46106F15C00FFF798FC0123C6E98A
:10099400086AC6E90B87C6F82890AB61BDE8F08702
:1009A400F41D0008ED070008650D00088D0D000812
:1009B400CD0D0008ED0D0008090001001200020031
:1009C400024B0349186800F045B800BFF41D000845
:1009D40015070008836903B97AE77047704700BFB9
:1009E400704700BF704700BF704700BF024B034908
:1009F400186800F00FB800BF00000020E9070008E5
:100A0400024B0349186800F005B800BF000000203D
:100A1400F90700082DE9F0410026884600F148074F
:100A2400D7E90154013D0ED4A389013D012B06D918
:100A3400B4F90E30013302D02046C04706436B1C84
:100A440004F16804F0D13F68002FE9D13046BDE8D5
:100A5400F08100BF2DE9F8434FF0000907468846AE
:100A640000F14806D6E90154013D10D4A389013DA3
:100A7400012B08D9B4F90E30013304D0214638468D
:100A8400C04749EA00096B1C04F16804EED13668DA
:100A9400002EE7D14846BDE8F88300BFF0B58B8946
:100AA4000C46990797B007D5012204F14703C4E91E
:100AB4000432236017B0F0BDB4F90E1005460029C6
:100AC4002DDB6A4600F0BCF9002827DB019E4FF4B9
:100AD400806706F47046A6F50056B6FA86F63946DF
:100AE4002846760900F0CEF830B3A3891A4A43F0B9
:100AF4008003AA62C4E90407A3812060002ED9D030
:100B04002846B4F90E1000F0AFF90028D2D0A3891A
:100B140023F0030343F00103A381CBE7A38913F07C
:100B2400800F14BF40274FF48067284639460026BB
:100B340000F0A8F80028D8D1B4F90C309A05B9D43B
:100B4400012123F0030304F1470243F00203C4E943
:100B54000421A3812260ADE7ED07000870B50C46BF
:100B6400B1F90E10164600291D4696B013DB6A46ED
:100B740000F066F900280EDB01994FF4806301F45C
:100B84007041A1F50051B1FA81F1002049092960B1
:100B9400336016B070BD0022B4F90C302A601B0615
:100BA40004D540230020336016B070BD4FF4806339
:100BB4000020336016B070BD002952D038B551F80A
:100BC400043C0C1F002BB8BFE418054600F074F970
:100BD4002B4A1368002B45D0A3420CD92168601816
:100BE400834228D0636028461460BDE8384000F092
:100BF40065B9A3420FD81A465B68002BF9D1116876
:100C0400501884421DD034D3636054602846BDE834
:100C1400384000F053B911685018A04215D028D8B4
:100C2400216860188342EFD118685B680144C4E905
:100C340000135460EAE718685B680144C4E90013D0
:100C4400D1E7236819441160E0E720680144501893
:100C540083421160DAD1D3E900030144C2E90013ED
:100C6400D4E77047284663601460BDE8384000F05C
:100C740025B90C2328462B60BDE8384000F01EB986
:100C84008C000020F8B5CD1C25F0030508350C2D8B
:100C940038BF0C25002D064623DBA94221D8264F58
:100CA40000F00AF93A6822B3144603E06368224666
:100CB400FBB11C4623685B1BF8D40B2B15D8636867
:100CC40094420CBF3B605360304600F0F7F804F1E7
:100CD4000B00231D20F00700C21A01D01B1AA350D9
:100CE400F8BD0C2300203360F8BD23601C4425604C
:100CF400EAE77968D1B12946304600F01FF8431C71
:100D040001460CD0C41C24F00304A04205D0304694
:100D1400611A00F013F8013001D02560D4E70C23E8
:100D24003046336000F0CAF80020F8BD304600F0C9
:100D340005F87860DFE700BF8C000020002238B59A
:100D4400064D044608462A6000F0D2FF431C00D03A
:100D540038BD2B68002BFBD0236038BD94000020E5
:100D640010B50C46B1F90E1000F0AAF8002803DB08
:100D7400636D0344636510BDA38923F48053A38189
:100D840010BD00BF002070472DE9F0410C46B1F9B9
:100D94000C101F46CB05054616460BD421F4805192
:100DA400A1813B4632462846B4F90E10BDE8F04115
:100DB40000F01EB8B4F90E100223002200F066F809
:100DC400B4F90C10EAE700BF10B50C46B1F90E10E7
:100DD40000F05CF8A389421C0EBF23F4805343F453
:100DE40080536065A38110BDB1F90E1000F016B8F0
:100DF40038B50C46114600228446074D20462A6029
:100E04001A46644600F0A8FF431C00D038BD2B6886
:100E1400002BFBD0236038BD94000020002238B59D
:100E2400064D044608462A6000F0A4FF431C00D087
:100E340038BD2B68002BFBD0236038BD9400002004
:100E440070B50026074D0446084611462E6000F092
:100E540094FF431C00D070BD2B68002BFBD0236093
:100E640070BD00BF94000020002238B5064D044632
:100E740008462A6000F086FF431C00D038BD2B686A
:100E8400002BFBD0236038BD9400002038B50C46FD
:100E9400114600228446074D20462A601A466446BD
:100EA40000F072FF431C00D038BD2B68002BFBD030
:100EB400236038BD94000020704700BF704700BF16
:100EC40038B50C46114600228446074D20462A6058
:100ED4001A46644600F030FF431C00D038BD2B682E
:100EE400002BFBD0236038BD9400002082B00A4B55
:100EF4009A6942F008029A619A6902F00802009223
:100F0400009A9A6942F004029A619B6903F004030F
:100F14000193019B02B070470010024072B6FEE7D5
:100F240008B50D480D4B03604FF4827343600023F2
:100F34008360C360036143614FF480228261C361B3
:100F44000362436283620A23C36200F005F900B9B5
:100F540008BDFFF7E3FF00BFE000002000380040B9
:100F640008B50A480A4B03604FF4E1334360002399
:100F74008360C36003610C2242618361C36100F03A
:100F840085FE00B908BDFFF7C9FF00BF9800002027
:100F94000038014000B591B02822002106A8FFF7CF
:100FA4008DF9002301930293039304930593022381
:100FB400069301230A9310230B9306A800F088F9E3
:100FC40068B90F23019300210291039104910591C3
:100FD40001A800F0AFFB20B911B05DF804FBFFF7E6
:100FE4009DFFFFF79BFF000008B500F037F9FFF7FE
:100FF400D1FFFFF77BFFFFF793FFFFF7B1FF024835
:10100400FFF716FAFBE700BF581E0008FEE7FEE7ED
:10101400FEE7FEE7FEE770477047704708B500F04B
:101024002FF908BD82B00E4B9A6942F001029A6111
:101034009A6902F001020092009ADA6942F0805241
:10104400DA61DB6903F080530193019B054A53681D
:1010540023F0E06343F08063536002B0704700BF45
:10106400001002400000014010B586B00023029336
:101074000393049305930268174B9A4201D006B078
:1010840010BD03F5EC33DA6942F48042DA61DA69BF
:1010940002F480420092009A9A6942F008029A612E
:1010A4009B6903F008030193019B4FF430430293BF
:1010B4000223039303230593084C02A9204600F05E
:1010C40015FC4FF48043029300230393049302A975
:1010D400204600F00BFCD2E700380040000C014031
:1010E40010B586B00023029303930493059302681A
:1010F400174B9A4201D006B010BD03F558439A69C4
:1011040042F480429A619A6902F480420092009A01
:101114009A6942F004029A619B6903F00403019303
:10112400019B4FF40073029302230393032305935B
:10113400084C02A9204600F0D9FB4FF480630293C7
:1011440000230393049302A9204600F0CFFBD2E7C7
:101154000038014000080140002856D010B504466C
:10116400436A33B94368B3F5827F05D00023C36172
:1011740002E00023036143610023A36294F8513029
:10118400002B3CD0022384F851302268136823F0EA
:1011940040031360636803F48273A26802F4044298
:1011A4001343E26802F400621343226902F002026C
:1011B4001343626902F001021343A26902F400724C
:1011C4001343E26902F038021343226A02F08002F8
:1011D4001343A26A02F40052216813430B60638B29
:1011E400226803F0040353602268D36923F4006384
:1011F400D36100206065012384F8513010BD84F868
:1012040050302046FFF730FFBCE701207047000054
:1012140010B504460E4B1A784FF47A73B3FBF2F30D
:101224000C4A1068B0FBF3F000F0D2FC68B90F2C44
:1012340001D901200AE0002221464FF0FF3000F0DE
:10124400B7FC054B1C60002000E0012010BD00BF6E
:10125400640000206C0000206800002008B5074AE4
:10126400136843F010031360032000F08FFC0F2079
:10127400FFF7CEFFFFF7D6FE002008BD0020024096
:10128400034A1168034B1B780B441360704700BF7B
:101294003801002064000020014B1868704700BF2B
:1012A4003801002082B0084B1B68084AA2FB0323C4
:1012B4005B0A00FB03F3019300BF019B5A1E0192DA
:1012C400002BF9D102B070476C000020D34D62109E
:1012D400002800F0F18170B582B00446036813F071
:1012E400010F2CD0994B5B6803F00C03042B1DD029
:1012F400964B5B6803F00C03082B12D06368B3F5BC
:10130400803F41D0002B55D103F1804303F50433D2
:101314001A6822F480321A601A6822F480221A6051
:1013240037E08A4B5B6813F4803FE7D0874B1B6838
:1013340013F4003F03D06368002B00F0BF812368DF
:1013440013F0020F75D0814B5B6813F00C0F5FD064
:101354007E4B5B6803F00C03082B54D02369002BED
:1013640000F08A807A4B01221A60FFF795FF054648
:10137400764B1B6813F0020F75D1FFF78DFF401BEE
:101384000228F5D903209EE1704A136843F48033A0
:101394001360636843B3FFF77FFF05466B4B1B681D
:1013A40013F4003FCBD1FFF777FF401B6428F5D936
:1013B400032088E1B3F5A02F09D0644B1A6822F406
:1013C40080321A601A6822F480221A60E1E703F17D
:1013D4008043A3F53C331A6842F480221A601A68E9
:1013E40042F480321A60D4E7FFF756FF0546574BA4
:1013F4001B6813F4003FA2D0FFF74EFF401B642884
:10140400F5D903205FE1514B5B6813F4803FA5D10C
:101414004E4B1B6813F0020F03D02369012B40F0DD
:101424004F814A4A136823F0F803616943EAC10310
:101434001360236813F0080F33D0A369002B5CD02A
:10144400434B0122C3F88024FFF726FF05463F4B98
:101454005B6A13F0020F21D1FFF71EFF401B022825
:10146400F5D903202FE1394A136823F0F8036169A1
:1014740043EAC1031360DCE7354B00221A60FFF72F
:101484000BFF0546314B1B6813F0020FD1D0FFF759
:1014940003FF401B0228F5D9032014E10120FFF7C4
:1014A40001FF236813F0040F00F09680274BDB69DB
:1014B40013F0805F34D1254BDA6942F08052DA614F
:1014C400DB6903F080530193019B0125214B1B68C9
:1014D40013F4807F26D0E368012B3DD0002B53D139
:1014E40003F1804303F504331A6A22F001021A62FD
:1014F4001A6A22F004021A6233E0154B0022C3F880
:101504008024FFF7C9FE0546104B5B6A13F0020FF7
:10151400C7D0FFF7C1FE401B0228F5D90320D2E053
:101524000025D3E70B4A136843F480731360FFF775
:10153400B3FE0646074B1B6813F4807FCBD1FFF73D
:10154400ABFE801B6428F5D90320BCE000100240E8
:1015540000004242007000405F4A136A43F00103F6
:101564001362E36833B3FFF797FE06465A4B1B6AD0
:1015740013F0020F2FD1FFF78FFE801B41F2883347
:101584009842F3D903209EE0052B09D0524B1A6AE6
:1015940022F001021A621A6A22F004021A62E0E7D7
:1015A4004D4B1A6A42F004021A621A6A42F00102AE
:1015B4001A62D6E7FFF770FE0646474B1B6A13F024
:1015C400020F08D0FFF768FE801B41F2883398426F
:1015D400F3D9032077E0E5B9E369002B72D03E4AE2
:1015E400526802F00C02082A56D0022B17D03B4B4B
:1015F40000221A66FFF750FE0446374B1B6813F0AF
:10160400007F47D0FFF748FE001B0228F5D90320CE
:1016140059E0314AD36923F08053D361DCE72F4B7F
:1016240000221A66FFF738FE05462B4B1B6813F0A1
:10163400007F06D0FFF730FE401B0228F5D90320B7
:1016440041E0236AB3F5803F1AD023494B6823F461
:101654007413226A606A024313434B601F4B0122D6
:101664001A66FFF719FE04461B4B1B6813F0007F34
:101674000ED1FFF711FE001B0228F5D9032022E04A
:10168400154A536823F40033A1680B435360DCE725
:10169400002018E0002016E0012B16D00E4B5B68EA
:1016A40003F48031226A914211D103F47013626A07
:1016B40093420ED1002006E001207047012002E091
:1016C400012000E0002002B070BD0120FBE70120F2
:1016D400F9E70120F7E700BF001002400000424292
:1016E4000F4B5B6803F00C02082A01D00D487047C9
:1016F400C3F383420C49885C13F4803F0BD0084B3E
:101704005B68C3F34043094AD35C064A02FB00F01A
:10171400B0FBF3F07047064B03FB00F0704700BFCB
:101724000010024000127A00681E0008641E0008BF
:1017340000093D00002800F0A08070B50D46044665
:10174400524B1B6803F007038B420BD24F4A1368BA
:1017540023F007030B431360136803F007038B4262
:1017640040F08D80236813F0020F17D013F0040F9C
:1017740004D0474A536843F4E0635360236813F08A
:10178400080F04D0424A536843F460535360404AFC
:10179400536823F0F003A1680B435360236813F0EC
:1017A400010F31D06368012B20D0022B25D0384A99
:1017B400126812F0020F64D035494A6822F003021D
:1017C40013434B60FFF768FD0646314B5B6803F03B
:1017D4000C036268B3EB820F16D0FFF75DFD801B2C
:1017E40041F288339842F0D9032045E0284A126830
:1017F40012F4003FE0D101203EE0254A126812F0C5
:10180400007FD9D1012037E0204B1B6803F0070388
:10181400AB420AD91D4A136823F007032B43136014
:10182400136803F00703AB422DD1236813F0040FB0
:1018340006D0174A536823F4E063E1680B4353600E
:10184400236813F0080F07D0114A536823F4605338
:10185400216943EAC1035360FFF742FF0C4B5B6805
:10186400C3F303130B4AD35CD8400B4B18600B4BE8
:101874001868FFF7CDFC002070BD012070470120DF
:10188400FAE70120F8E70120F6E700BF0020024054
:1018940000100240801E00086C0000206800002038
:1018A400014B1868704700BF6C00002008B5FFF7B3
:1018B400F7FF044B5B68C3F30223034AD35CD840AD
:1018C40008BD00BF00100240781E000808B5FFF7ED
:1018D400E7FF044B5B68C3F3C223034AD35CD840DD
:1018E40008BD00BF00100240781E000870B582B029
:1018F4000024A446ACE0854DAB4210D007D9844DFA
:10190400AB420CD005F58035AB4208D013E0A5F509
:101914008015AB4203D005F57025AB4207D18B6827
:10192400002B5FD0012B58D04261082403E0A5F5B9
:101934008015AB42F3D0BEF1FF0F55D806464FEAEF
:101944008C0233680F25954023EA050304FA02F25A
:10195400134333604B6813F0805F77D06D4B9A6903
:1019640042F001029A619B6903F001030193019B18
:101974004FEA9C02951C684B53F825600CF0030554
:10198400AD000F23AB4026EA0306644B984232D0E5
:1019940003F58063984200F0978003F580639842D2
:1019A40000F0948003F58063984200F0918003F581
:1019B4008063984200F08E8003F58063984218D0CB
:1019C400062319E0CC68B6E7CC680434B3E7CC68E6
:1019D4000834B0E7CC680C34ADE702610824AAE708
:1019E4000024A8E70424A6E7061DACF1080292002F
:1019F400A7E7052300E00023AB4033430232464D02
:101A040045F822304B6813F4801F65D0444A93682C
:101A140043EA0E0393604B6813F4001F62D0404AFC
:101A2400D36843EA0E03D3604B6813F4003F5FD0DE
:101A34003B4A536843EA0E0353604B6813F4803FF8
:101A44005CD0374A136843EA0E0313600CF1010CAF
:101A54000B6833FA0CF257D0012202FA0CF203EAB3
:101A6400020E32EA0303F1D14B68122B3FF643AF67
:101A7400122B3FF660AF01A555F823F02319000897
:101A8400C9190008D3190008E51900083B19000812
:101A94003B1900083B1900083B1900083B190008D2
:101AA4003B1900083B1900083B1900083B190008C2
:101AB4003B1900083B1900083B1900083B190008B2
:101AC400CD190008D9190008012395E7022393E7EB
:101AD400032391E704238FE7114A936823EA0E0353
:101AE400936098E70E4AD36823EA0E03D3609BE71A
:101AF4000B4A536823EA0E0353609EE7084A1368AF
:101B040023EA0E031360A1E702B070BD00002210A7
:101B140000003110001002400000014000080140A4
:101B240000040140002808DB0901C9B200F160404B
:101B340000F5614080F80013704700F00F000901C0
:101B4400C9B2014B1954704714ED00E000B500F020
:101B54000700C0F1070CBCF1040F28BF4FF0040CC0
:101B6400031D062B0FD9C31E4FF0FF3E0EFA0CF0D7
:101B740021EA000199400EFA03FE22EA0E0241EA2C
:101B840002005DF804FB0023EEE70000074AD36877
:101B940023F4E0631B041B0C000200F4E060034325
:101BA40043F0BF6343F40033D360704700ED00E0BB
:101BB40010B50446054BD868C0F30220FFF7C6FFF2
:101BC40001462046FFF7AEFF10BD00BF00ED00E068
:101BD4000138B0F1807F0BD24FF0E0235861054A01
:101BE400F02182F823100020986107221A617047BF
:101BF4000120704700ED00E010B504460268136947
:101C040023F44053C1680B4313618368026913438F
:101C140042691A430168CB6823F4B05323F00C03E0
:101C24001343CB600268536923F4407381690B4307
:101C340053610268134B9A4220D0FFF737FE0246E5
:101C440002EB820202EB820263689B00B2FBF3F2B6
:101C54000D48A0FB02314909642303FB11231B0136
:101C64003233A0FB03035B0903F0F00202EB011221
:101C740003F00F03216813448B6010BDFFF726FEA9
:101C84000246DDE7003801401F85EB5160B310B513
:101C9400044690F8413013B3242384F84130226879
:101CA400D36823F40053D3602046FFF7A5FF2268CE
:101CB400136923F4904313612268536923F02A03C0
:101CC40053612268D36843F40053D36000206064F6
:101CD400202384F8413084F84230606310BD80F8DA
:101CE4004030FFF7FDF9D7E7012070477047000047
:101CF40010B503460C4A0D490D48006840B10C4824
:101D040000680344521A934206D8094A136010BD6E
:101D14000748084C0460F2E7FEF7A6FA0C230360B8
:101D24004FF0FF30F3E700BF000001200004000083
:101D34003C0100204001002070B50C4616460025E9
:101D440006E0AFF30080214601F8010B01350C4693
:101D5400B542F6DB304670BD70B50C46164600251C
:101D640004E014F8010BAFF300800135B542F8DB51
:101D7400304670BD4FF0FF3070474FF400534B6056
:101D8400002070470120704700207047FFF7AEFF26
:101D94000B480C490C4A002302E0D458C4500433C5
:101DA400C4188C42F9D3094A094C002301E013609A
:101DB4000432A242FBD3FEF75DFAFFF715F9704730
:101DC4000000002070000020981E00087000002011
:101DD40040010020FEE70000F8B500BFF8BC08BCD5
:101DE4009E467047F8B500BFF8BC08BC9E467047D5
:101DF40004000020000000000000000000000000BB
:101E040000000000000000000000000000000000CE
:101E140000000000000000000000000000000000BE
:101E240000000000000000000000000000000000AE
:101E3400000000000000000000000000000000009E
:101E4400000000000000000000000000000000008E
:101E54000000000048656C6C6F20576F726C640062
:101E64000102000002030405060708090A0B0C0D11
:101E74000E0F101000000000010203040000000017
:0C1E84000000000001020304060708092A
:041E90004D020008F7
:041E9400250200081B
:101E98000400002000000000381E0008181E00087A
:101EA800F81D00080000000000000000000000000D
:101EB800000000000000000000000000000000001A
:101EC800000000000000000000000000000000000A
:101ED80000000000000000000000000000000000FA
:101EE80000000000000000000000000000000000EA
:101EF8000000000001000000100000000024F400B1
:0400000508001D9141
:00000001FF
